:100000000C94DA000C9402010C9402010C9402018D
:100010000C9402010C9402010C9402010C94020154
:100020000C9402010C9402010C9402010C94020144
:100030000C9402010C9402010C9402010C94020134
:100040000C9475060C9402010C94E5060C94BF0602
:100050000C9402010C9402010C9402010C94020114
:100060000C9402010C94020100407A10F35A00A093
:10007000724E18090010A5D4E80000E87648170071
:1000800000E40B54020000CA9A3B000000E1F505B1
:10009000000080969800000040420F000000A086FB
:1000A00001000000102700000000E803000000002D
:1000B0006400000000000A000000000001000000D1
:1000C00000002C76D888DC674F0823DFC1DFAE59EB
:1000D000E1B1B796E5E3E453C63AE651997696E87E
:1000E000E6C28426EB898C9B62ED407C6FFCEFBC02
:1000F0009C9F40F2BAA56FA5F490055A2AF75C932D
:100100006B6CF9676DC11BFCE0E40D47FEF520E662
:10011000B500D0ED902E0300943577050080841E45
:10012000080000204E0A000000C80C333333330FA0
:10013000986E12831141EF8D2114893BE65516CF3D
:10014000FEE6DB18D1844B381BF77C1D901DA4BB49
:10015000E424203284725E228100C9F124ECA1E5FE
:100160003D2700000000240027002A0000000000B6
:10017000250028002B0004040404040404040202E3
:100180000202020203030303030301020408102016
:100190004080010204081020010204081020000021
:1001A0000008000201000003040700000000000036
:1001B0000000480811241FBECFEFD8E0DEBFCDBF3E
:1001C00021E0A8E2B1E001C01D92A63DB207E1F72F
:1001D00011E0A0E0B1E0E6E4FEE102C005900D927E
:1001E000A832B107D9F710E0CAEDD0E004C02197DA
:1001F000FE010E94290DC93DD107C9F70E941707CA
:100200000C94210F0C940000EBEAF1E02491E7E953
:10021000F1E09491E3E8F1E0E491EE23C9F02223C8
:1002200039F0233001F1A8F4213019F1223029F1FD
:10023000F0E0EE0FFF1FE459FE4FA591B4912FB7E8
:10024000F894EC91811126C090959E239C932FBF2A
:1002500008952730A9F02830C9F0243049F72091BB
:1002600080002F7D03C0209180002F772093800095
:10027000DFCF24B52F7724BDDBCF24B52F7DFBCF77
:100280002091B0002F772093B000D2CF2091B00002
:100290002F7DF9CF9E2BDACF3FB7F89480912901BB
:1002A00090912A01A0912B01B0912C0126B5A89B19
:1002B00005C02F3F19F00196A11DB11D3FBFBA2FF8
:1002C000A92F982F8827BC01CD01620F711D811DB8
:1002D000911D42E0660F771F881F991F4A95D1F73D
:1002E00008958F929F92AF92BF92CF92DF92EF923A
:1002F000FF926B017C010E944C014B015C01C11417
:10030000D104E104F104B9F00E944C0168197909A3
:100310008A099B09683E73408105910580F321E0BD
:10032000C21AD108E108F10888EE880E83E0981E11
:10033000A11CB11CE4CFFF90EF90DF90CF90BF9055
:10034000AF909F908F900895AF92BF92CF92DF921F
:10035000EF92FF920F931F93CF93DF936C017B017A
:100360008B01040F151FEB015E01AE18BF08C0170B
:10037000D10759F06991D601ED91FC910190F0817E
:10038000E02DC6010995892B79F7C501DF91CF9141
:100390001F910F91FF90EF90DF90CF90BF90AF90A3
:1003A0000895FC01538D448D252F30E0842F90E07B
:1003B000821B930B541710F0CF9608950197089560
:1003C000FC01918D828D981761F0A28DAE0FBF2F29
:1003D000B11D5D968C91928D9F5F9F73928F90E07F
:1003E00008958FEF9FEF08952FB7F89480912D0116
:1003F00090912E01A0912F01B09130012FBF8093D9
:100400003D0190933E01A0933F01B093400185E3ED
:1004100091E00E94E00197FF26C02FB7F8948091E9
:100420002D0190912E01A0912F01B09130012FBF8D
:1004300040913D0150913E0160913F01709140011A
:10044000841B950BA60BB70B4091390150913A01D3
:1004500060913B0170913C0184179507A607B7078F
:10046000B0F28FEF9FEF0895FC01918D828D981768
:1004700031F0828DE80FF11D858D90E008958FEFAA
:100480009FEF0895FC01918D228D892F90E0805C73
:100490009F4F821B91098F739927089585E391E0FF
:1004A0000E94420221E0892B09F420E0822F089566
:1004B00080E090E0892B29F00E944E0281110C947B
:1004C00000000895FC01A48DA80FB92FB11DA35AF7
:1004D000BF4F2C91848D90E001968F739927848F64
:1004E000A689B7892C93A089B1898C918370806487
:1004F0008C93938D848D981306C00288F389E02D28
:1005000080818F7D80830895EF92FF920F931F93D8
:10051000CF93DF93EC0181E0888F9B8D8C8D9813B6
:100520001AC0E889F989808185FF15C09FB7F894C2
:10053000EE89FF896083E889F9898081837080640E
:1005400080839FBF81E090E0DF91CF911F910F9159
:10055000FF90EF900895F62E0B8D10E00F5F1F4F68
:100560000F731127E02E8C8D8E110CC00FB607FC77
:10057000FACFE889F989808185FFF5CFCE010E9405
:100580006202F1CFEB8DEC0FFD2FF11DE35AFF4F0F
:10059000F0829FB7F8940B8FEA89FB898081806293
:1005A000CFCFCF93DF93EC01888D8823B9F0AA8950
:1005B000BB89E889F9898C9185FD03C0808186FD1E
:1005C0000DC00FB607FCF7CF8C9185FFF2CF80816D
:1005D00085FFEDCFCE010E946202E9CFDF91CF917E
:1005E0000895CF92DF92EF92FF926C0181E00E941A
:1005F00004010D2C000CEE08FF08C701B6010E9493
:10060000710180E00E940401C701B601FF90EF90E4
:10061000DF90CF900C947101FC0101900020E9F76C
:100620003197AF01481B590BBC0185E391E00C9455
:10063000A4018F929F92AF92BF920F931F93CF937B
:10064000DF93CDB7DEB7A1970FB6F894DEBF0FBE2C
:10065000CDBF19A2423008F44AE08E010F5D1F4F52
:10066000842E912CB12CA12CA50194010E94070D80
:10067000E62FB901CA01EA30F4F4E05DD801EE9347
:100680008D01232B242B252B79F790E080E0109708
:1006900019F0CD010E940C03A1960FB6F894DEBFAD
:1006A0000FBECDBFDF91CF911F910F91BF90AF9043
:1006B0009F908F900895E95CE1CFCF92DF92EF9207
:1006C000FF92CF93DF936B017C016DE285E391E0B4
:1006D0000E948402EC0166277727CB016C197D0903
:1006E0008E099F094AE00E9419038C0F9D1FDF911C
:1006F000CF91FF90EF90DF90CF900895CF93DF934D
:10070000FC01448155816081718185E391E00E9403
:10071000A401EC0188E191E00E940C038C0F9D1F65
:10072000DF91CF910895CF93DF93BC01990F880B90
:10073000990B4AE00E941903EC0188E191E00E94C4
:100740000C038C0F9D1FDF91CF91089588EC90E0F2
:100750000C9493034F925F926F927F928F929F922D
:10076000AF92BF92CF92DF92EF92FF926B017C012A
:10077000AC019B010E94020D8823C1F08BE191E046
:100780000E940C037C0188E191E00E940C038E0D15
:100790009F1DFF90EF90DF90CF90BF90AF909F9004
:1007A0008F907F906F905F904F9008954601570112
:1007B000E894B7F82FEF3FEF4FE75FE7C501B401CB
:1007C0000E94020D81110DC02FEF3FEF4FE75FE751
:1007D000C501B4010E94060B18161CF48FE191E0CC
:1007E000CFCF2FEF3FEF4FE75FE4C701B6010E9485
:1007F000FD0C18161CF483E291E0C2CF2FEF3FEFFF
:100800004FE75FECC701B6010E94060B87FDF3CFEF
:1008100020E030E0A901C701B6010E94060BB12C0F
:10082000A12C87FF0AC06DE285E391E00E9484025B
:100830005C01F7FAF094F7F8F0942AE037ED43EA18
:100840005BE3C701B6010E94620C2B013C010E94D0
:10085000CE0C6B017C010E940B0B9B01AC01C30110
:10086000B2010E94610C2B013C014AE0C701B601B4
:100870000E9419037C01EA0CFB1C6EE285E391E007
:100880000E948402E80EF91E20E030E040E251E4CC
:10089000C301B2010E946C0B2B013C010E94CE0CE3
:1008A0004B01B12CA12C4AE0C501B4010E941903EF
:1008B000E80EF91EC501B4010E940B0B9B01AC01AF
:1008C000C301B2010E94610C20E030E040E251E43B
:1008D0000E946C0B0E94CE0C90E080E04AE00E94E7
:1008E0001903E80EF91E4FCFCF93DF93EC018881F7
:1008F0009981009711F00E94CB0D198218821D82F8
:100900001C821B821A82DF91CF910895FC018081A5
:100910009181009711F00C94CB0D08950F931F93C4
:10092000CF93DF93EC0188819981009759F02A8158
:100930003B812617370730F081E0DF91CF911F917F
:100940000F9108958B016F5F7F4F0E94540E0097A7
:1009500059F0998388831B830A832C813D81232B43
:1009600059F7FC011082E8CF80E0E7CFEF92FF92C9
:100970000F931F93CF93DF93EC01FB01E080F18095
:10098000E114F10411F10481158101151105A9F09B
:100990008C819D81080F191FB801CE010E948E0421
:1009A000882399F0288139818C819D81B701820F3C
:1009B000931F0E941A0F1D830C83CE01DF91CF91EC
:1009C0001F910F91FF90EF900895CE010E94740443
:1009D000F4CFEF92FF920F931F93CF93DF93EC012D
:1009E0007B018A01BA010E948E0481110BC0CE01E5
:1009F0000E947404CE01DF91CF911F910F91FF905F
:100A0000EF9008951D830C83B701888199810E941E
:100A10001A0FF0CFEF92FF920F931F93CF93DF93B4
:100A2000CDB7DEB7A1970FB6F894DEBF0FBECDBF2E
:100A30007C01CB01BA01F70111821082138212826C
:100A4000158214828E010F5F1F4F22E044E00E9446
:100A500075080097C9F0FC0101900020E9F7319773
:100A6000AF01481B590BBC01C7010E94E904A196C4
:100A70000FB6F894DEBF0FBECDBFDF91CF911F91AF
:100A80000F91FF90EF900895C7010E947404EFCF7B
:100A9000EF92FF920F931F93CF93DF93CDB7DEB703
:100AA00068970FB6F894DEBF0FBECDBF8C010E94D1
:100AB000A60364EF71E080E090E00E9471012DE5F3
:100AC0003DE645E05FE36091310170913201809134
:100AD0003301909134010E94620C60933101709354
:100AE0003201809333019093340122E83CE848EDD1
:100AF0005EE30E946C0B9B01AC0161EE7AEE86E135
:100B000094E40E94610CAB01BC01CE0101960E94ED
:100B10000A0518861F821A8619861C861B868CE792
:100B20008D871E867E018DE0E80EF11CF701019095
:100B30000020E9F73197AF014E195F09B701CE01E7
:100B400007960E94E9044DE55DE665E07FE3CE018E
:100B500043960E940A051E861D86188A1F861A8AD9
:100B6000198A6B897C896115710529F04F89588D27
:100B7000C7010E94E904BE01695F7F4FC7010E945F
:100B8000B604BE016F5F7F4F0E94B604F801118268
:100B9000108213821282158214820817190759F0E5
:100BA000FC01608171816115710529F044815581D5
:100BB000C8010E94E904C7010E948604CE01439641
:100BC0000E948604CE0107960E948604CE010196FB
:100BD0000E948604C80168960FB6F894DEBF0FBE67
:100BE000CDBFDF91CF911F910F91FF90EF900895AE
:100BF000EF92FF920F931F93CF93DF9300D0CDB767
:100C0000DEB78C01FC0111821082138212821582E0
:100C1000148250E040E06AE171E00E94E9040E9421
:100C2000F40197FD1EC089831A82F801E480F580E3
:100C3000FFEFEF1AFF0AB701C8010E948E04882354
:100C400071F3F8012081318184819581BE016F5F4C
:100C50007F4F820F931F0E941A0FF801F582E482E2
:100C6000DECFC8010F900F90DF91CF911F910F91B0
:100C7000FF90EF900895CF92DF92EF92FF92CF9383
:100C8000DF9300D000D000D0CDB7DEB785E391E090
:100C90000E944202892B29F488EC90E00E94F10224
:100CA000F5CF84E690E00E94F102CE0101960E9409
:100CB000F80589819A81C12CD12C7601009719F011
:100CC0000E9493086B01CE0101960E948604C60122
:100CD00026960FB6F894DEBF0FBECDBFDF91CF9141
:100CE000FF90EF90DF90CF9008951F920F920FB674
:100CF0000F9211242F933F938F939F93AF93BF93A2
:100D000080912D0190912E01A0912F01B091300181
:100D10003091280123E0230F2D3758F50196A11DAE
:100D2000B11D2093280180932D0190932E01A09353
:100D30002F01B09330018091290190912A01A09157
:100D40002B01B0912C010196A11DB11D80932901A9
:100D500090932A01A0932B01B0932C01BF91AF91E6
:100D60009F918F913F912F910F900FBE0F901F90E9
:100D7000189526E8230F0296A11DB11DD2CF1F9210
:100D80000F920FB60F9211242F933F934F935F93BF
:100D90006F937F938F939F93AF93BF93EF93FF9343
:100DA00085E391E00E946202FF91EF91BF91AF91C4
:100DB0009F918F917F916F915F914F913F912F9173
:100DC0000F900FBE0F901F9018951F920F920FB6A5
:100DD0000F9211242F938F939F93EF93FF93E091A2
:100DE0004501F09146018081E0914B01F0914C0169
:100DF00082FD1BC0908180914E018F5F8F73209187
:100E00004F01821741F0E0914E01F0E0EB5CFE4FA4
:100E1000958F80934E01FF91EF919F918F912F912C
:100E20000F900FBE0F901F9018958081F4CFCF9335
:100E3000DF9300D000D000D0CDB7DEB7789484B572
:100E4000826084BD84B5816084BD85B5826085BDC6
:100E500085B5816085BD80916E00816080936E0054
:100E60001092810080918100826080938100809146
:100E700081008160809381008091800081608093F7
:100E800080008091B10084608093B1008091B000B7
:100E900081608093B00080917A00846080937A00B2
:100EA00080917A00826080937A0080917A008160DC
:100EB00080937A0080917A00806880937A00109203
:100EC000C100109231011092320110923301109240
:100ED0003401E7E9F1E02491E3E8F1E0849188232B
:100EE00099F090E0880F991FFC01EE59FE4FA591F3
:100EF000B491FC01E459FE4F859194918FB7F89419
:100F0000EC91E22BEC938FBFE0914501F09146010B
:100F100082E08083E0914101F09142011082E091F2
:100F20004301F091440180E1808310924D01E091F2
:100F30004901F0914A0186E08083E0914701F091F8
:100F40004801808180618083E0914701F0914801F0
:100F5000808188608083E0914701F0914801808121
:100F600080688083E0914701F091480180818F7D06
:100F700080834AE065E470E080E090E00E9419031D
:100F800000E010E00E943B068556910988309105EB
:100F900008F079C0FC01E153F84F0C94290DD707F4
:100FA000FD07FB070F082F082F0843083C080E9485
:100FB000A60385E391E00E944202892BD1F3CE0182
:100FC00001960E94F80589819A81C12CD12C760165
:100FD000009721F00E9493086B017C01CE010196DD
:100FE0000E94860489ECC816D104E104F10409F7D3
:100FF0000E94A60308C00E94A6036DE57DE685E079
:101000009FE30E94AA030115110509F4BBCF0E94BA
:101010004E02882309F4B6CF0E940000B3CF0E948D
:10102000A60322E83CE848ED5EE36091310170914F
:10103000320180913301909134010E946C0B9B012D
:10104000AC0161EE7AEE86E194E40E94610C0E94AC
:10105000AA030E943B06893C910509F7D4CFCE0133
:1010600001960E944805CE0101960E947E03CE01A2
:1010700001960E948604C7CF68E873E180E090E0A3
:101080000E947101B5CF84E991E00E949303BBCF28
:10109000E5E3F1E01382128288EE93E0A0E0B0E095
:1010A00084839583A683B7838AE091E091838083CC
:1010B00085EC90E09587848784EC90E0978786871D
:1010C00080EC90E0918B808B81EC90E0938B828B15
:1010D00082EC90E0958B848B86EC90E0978B868BEE
:1010E000118E128E138E148E0895EF920F931F930C
:1010F000CF93DF93E80134E047FD34E1042E000C88
:10110000550B57FF03C0519541955109E32E022F0E
:10111000242FAE010E94CF08CE01DF91CF911F9105
:101120000F91EF9008951F93FC0199278827BC0128
:10113000E89411911032E9F3193010F01E30C8F321
:101140001B3251F01D3249F4689406C00E94BA085F
:10115000610F711D811D911D119110531A30B0F353
:101160003EF490958095709561957F4F8F4F9F4F7E
:101170001F910895592F482F372F262F660F771F5D
:10118000881F991F660F771F881F991F620F731F93
:10119000841F951F660F771F881F991F0895A9E068
:1011A000B0E0E5EDF8E00C94300C6A01F22EB02EC0
:1011B000102FFBE3AF2EA01608F41BE31F5F012FD7
:1011C00027E0AE014F5F5F4F0E942E0ABC0189816C
:1011D000982F9970913009F43FC09BE2E1FC04C064
:1011E0009E2D9170E0FC3AC05E2D5071E82FE870A2
:1011F00083FF46C084E0911101C083E0EF2DE81B1E
:101200008F1508F0E0E0D6018E2F20E2552351F132
:10121000992329F0D6019C93C60101966C01960191
:101220002D5F3F4FE2FE24C08EE4D6018C9391E403
:1012300011969C93119712968C93D9018E2F90E260
:1012400081111BC0E20FF32FF11D10828EEF9FEF73
:101250002996ECE00C944C0C9DE2C6CF90E2C4CFF2
:101260002D9381508111FCCFCE0ED11CE0E0D0CF68
:101270008EE6D6018C9391E6DBCF9D938150E0CF33
:10128000482F447082FF3DC084E0911101C083E08B
:101290008F1510F4EF2DE81BD6018E2F20E2552379
:1012A00009F1992329F0D6019C93C60101966C019E
:1012B00096012D5F3F4FE2FE1BC089E4D6018C935F
:1012C0008EE411968C93119786E412968C93D90133
:1012D0008E2F90E2882309F4B5CF9D938150FACFE9
:1012E0002D9381508111FCCFCE0ED11CE0E0D9CFDF
:1012F00089E6D6018C938EE611968C93119786E63B
:10130000E4CF9B0177FF02C030E020E0A1E0B0E035
:10131000911102C0B0E0A0E0F9013196AE0FBF1FFD
:101320008B2C912CBB2009F461C05401EFEFAE1A55
:10133000BE0AAA0DBB1DFA161B0619F014F04F2D9C
:101340004A1B511188C0E3FC59C07601A42FB0E2BA
:10135000A1114FC0C40ED11C992309F45BC040E019
:10136000D6011196F60190836D01552309F448C00A
:10137000012F060F9A81582F507184FF03C09133BB
:1013800009F4015010160CF047C0093008F008E0CD
:10139000EEE2FE2E5B01A01AB108850191948194C2
:1013A00091082F3F320729F4D601FC92F6013196BD
:1013B0006F016217730794F1021713077CF5DB01C5
:1013C000A21BB30BAA24A394B12CAC0EBD1EAA0D74
:1013D000BB1D11968C9121503109D601119628150B
:1013E0003905F4F0F60180836D01DBCFB12CA12C1F
:1013F000A0CFF701B1937F01A150AACF9111B0CF37
:10140000D601942F50E302C05D9391509111FCCF0F
:10141000C40ED11C40E0ACCF01E0BACF80E3DBCFFB
:101420006217730731F4963388F4953311F455231A
:1014300069F0F6018083FD01842F90E2811108C0DC
:10144000A40FB11D1C9290E080E002CF81E3F1CFA8
:1014500091938150F3CF911183CF8ACF283008F038
:1014600027E03327DA01990F311D87FD916000963F
:101470006105710539F432602E5F3D9330E32A95A2
:10148000E1F708959F3F30F080387105610509F05C
:101490003C5F3C5F3D93913008F08068911DDF9385
:1014A000CF931F930F93FF92EF92192F987F9695EA
:1014B000E92F96959695E90FFF27EE53FF4F992751
:1014C0003327EE24FF24A701E70105900894079431
:1014D00028F4360FE71EF81E491F511D660F771FAF
:1014E000881F991F0694A1F70590079428F4E70E2A
:1014F000F81E491F561FC11D770F881F991F661FB1
:101500000694A1F70590079428F4F80E491F561F7A
:10151000C71FD11D880F991F661F771F0694A1F75B
:101520000590079420F4490F561FC71FD81F990F25
:10153000661F771F881F0694A9F78491109517706E
:1015400041F0D695C79557954795F794E7941A9526
:10155000C1F7E8E6F0E06894159015913591659132
:10156000959105907FE27395E118F10A430B560BB4
:10157000C90BD009C0F7E10CF11E431F561FC91F4C
:10158000D01D7EF4703311F48A95E6CFE8940150B3
:1015900030F0080F0AF40027021708F4202F2395D3
:1015A000022F7A3328F079E37D932A95E9F710C06A
:1015B0007D932A9589F606949795679537951795A3
:1015C0001794E118F10A430B560BC90BD00998F098
:1015D00023957E9173957A3308F070E37C93201302
:1015E000B8F77E9170617D9330F0839571E37D93C0
:1015F00070E32A95E1F71124EF90FF900F911F916E
:10160000CF91DF91992787FD909508950E94480B0F
:1016100008F481E00895E89409C097FB3EF49095A2
:101620008095709561957F4F8F4F9F4F9923A9F0BB
:10163000F92F96E9BB279395F6958795779567954A
:10164000B795F111F8CFFAF4BB0F11F460FF1BC08E
:101650006F5F7F4F8F4F9F4F16C0882311F096E921
:1016600011C0772321F09EE8872F762F05C06623CF
:1016700071F096E8862F70E060E02AF09A95660F88
:10168000771F881FDAF7880F9695879597F9089541
:10169000990F0008550FAA0BE0E8FEEF1616170683
:1016A000E807F907C0F012161306E407F50798F0EB
:1016B000621B730B840B950B39F40A2661F0232B04
:1016C000242B252B21F408950A2609F4A140A69580
:1016D0008FEF811D811D08950E947F0B0C94F00BEC
:1016E0000E94E20B38F00E94E90B20F0952311F0E4
:1016F0000C94D90B0C94DF0B11240C94240C0E9435
:10170000010C70F3959FC1F3950F50E0551F629F38
:10171000F001729FBB27F00DB11D639FAA27F00D4A
:10172000B11DAA1F649F6627B00DA11D661F829F71
:101730002227B00DA11D621F739FB00DA11D621F56
:10174000839FA00D611D221F749F3327A00D611D73
:10175000231F849F600D211D822F762F6A2F112455
:101760009F5750409AF0F1F088234AF0EE0FFF1F88
:10177000BB1F661F771F881F91505040A9F79E3FDF
:10178000510580F00C94D90B0C94240C5F3FE4F3CA
:10179000983ED4F3869577956795B795F795E79535
:1017A0009F5FC1F7FE2B880F911D9695879597F93E
:1017B000089597F99F6780E870E060E008959FEFD3
:1017C00080EC089500240A941616170618060906D8
:1017D000089500240A9412161306140605060895A7
:1017E000092E0394000C11F4882352F0BB0F40F42F
:1017F000BF2B11F460FF04C06F5F7F4F8F4F9F4F6F
:10180000089557FD9058440F551F59F05F3F71F0F0
:101810004795880F97FB991F61F09F3F79F0879557
:101820000895121613061406551FF2CF4695F1DFE0
:1018300008C0161617061806991FF1CF8695710570
:10184000610508940895E894BB2766277727CB01A4
:1018500097F908952F923F924F925F926F927F92E5
:101860008F929F92AF92BF92CF92DF92EF92FF92B0
:101870000F931F93CF93DF93CDB7DEB7CA1BDB0B5C
:101880000FB6F894DEBF0FBECDBF09942A88398801
:1018900048885F846E847D848C849B84AA84B98408
:1018A000C884DF80EE80FD800C811B81AA81B98114
:1018B000CE0FD11D0FB6F894DEBF0FBECDBFED0128
:1018C00008955058BB27AA270E94790C0C94F00B5E
:1018D0000E94E20B38F00E94E90B20F039F49F3FA0
:1018E00019F426F40C94DF0B0EF4E095E7FB0C944E
:1018F000D90BE92F0E94010C58F3BA17620773073E
:101900008407950720F079F4A6F50C94230C0EF4C7
:10191000E0950B2EBA2FA02D0B01B90190010C01FF
:10192000CA01A0011124FF27591B99F0593F50F417
:10193000503E68F11A16F040A22F232F342F44276F
:10194000585FF3CF469537952795A795F040539567
:10195000C9F77EF41F16BA0B620B730B840BBAF037
:101960009150A1F0FF0FBB1F661F771F881FC2F7A2
:101970000EC0BA0F621F731F841F48F487957795B6
:101980006795B795F7959E3F08F0B0CF9395880F70
:1019900008F09927EE0F9795879508950E94090CF6
:1019A00088F09F5798F0B92F9927B751B0F0E1F020
:1019B000660F771F881F991F1AF0BA95C9F714C0D0
:1019C000B13091F00E94230CB1E008950C94230CE7
:1019D000672F782F8827B85F39F0B93FCCF3869509
:1019E00077956795B395D9F73EF490958095709566
:1019F00061957F4F8F4F9F4F08950E94480B08F4C9
:101A00008FEF08950E94480B880B990B0895A1E26F
:101A10001A2EAA1BBB1BFD010DC0AA1FBB1FEE1F68
:101A2000FF1FA217B307E407F50720F0A21BB30BB3
:101A3000E40BF50B661F771F881F991F1A9469F72F
:101A400060957095809590959B01AC01BD01CF018B
:101A50000895EE0FFF1F0590F491E02D09940F9368
:101A60001F93CF93DF938230910510F482E090E0D2
:101A7000E091D401F091D50130E020E0B0E0A0E0A9
:101A8000309799F42115310509F44AC0281B390B08
:101A900024303105D8F58A819B816115710589F162
:101AA000FB0193838283FE0111C040815181028139
:101AB000138148175907E0F04817590799F4109710
:101AC00061F012960C93129713961C933296CF01E5
:101AD000DF91CF911F910F9108950093D40110933E
:101AE000D501F4CF2115310551F04217530738F0D5
:101AF000A901DB019A01BD01DF01F801C1CFEF01AE
:101B0000F9CF9093D5018093D401CDCFFE01E20FA0
:101B1000F31F819391932250310939832883D7CFC2
:101B20002091D2013091D301232B41F42091020165
:101B3000309103013093D3012093D2012091000111
:101B4000309101012115310541F42DB73EB7409187
:101B5000040150910501241B350BE091D201F09155
:101B6000D301E217F307A0F42E1B3F0B2817390708
:101B700078F0AC014E5F5F4F2417350748F04E0FE9
:101B80005F1F5093D3014093D201819391939FCFD4
:101B9000F0E0E0E09CCFCF93DF930097E9F0FC0109
:101BA000329713821282A091D401B091D501ED0138
:101BB00030E020E01097A1F420813181820F931F43
:101BC0002091D2013091D3012817390709F061C063
:101BD000F093D301E093D201DF91CF910895EA0110
:101BE000CE17DF07E8F54A815B819E01411551055B
:101BF000B1F7E901FB83EA8349915991C40FD51FDD
:101C0000EC17FD0761F4808191810296840F951F86
:101C1000E90199838883828193819B838A83F0E0A1
:101C2000E0E012968D919C9113970097B9F52D9154
:101C30003C911197CD010296820F931F2091D20102
:101C40003091D3012817390739F6309751F51092A2
:101C5000D5011092D401B093D301A093D201BCCF8F
:101C6000D383C28340815181840F951FC817D90740
:101C700061F44E5F5F4F88819981480F591F5183EE
:101C800040838A819B81938382832115310509F0EA
:101C9000B0CFF093D501E093D4019ECFFD01DC01DC
:101CA000C0CF13821282D7CFB0E0A0E0EAE5FEE019
:101CB0000C942C0C8C01009751F4CB010E942F0D39
:101CC0008C01C801CDB7DEB7E0E10C94480CFC01F3
:101CD000E60FF71F9C0122503109E217F30708F4C1
:101CE0009DC0D901CD91DC911197C617D70798F007
:101CF000C530D10530F3CE0104978617970708F356
:101D0000C61BD70B2297C193D1936D937C93CF01C0
:101D10000E94CB0DD6CF5B01AC1ABD0A4C018C0ED4
:101D20009D1EA091D401B091D501512C412CF12CD4
:101D3000E12C109731F58091D2019091D301881553
:101D4000990509F05CC04616570608F058C0809106
:101D5000000190910101009741F48DB79EB7409129
:101D6000040150910501841B950BE817F90708F051
:101D700055C0F093D301E093D201F90171836083E0
:101D8000A0CF8D919C91119712966C9012971396FB
:101D90007C901397A815B90559F56C0142E0C40E63
:101DA000D11CCA14DB0420F1AC014A195B09DA0129
:101DB0001296159780F06282738251834083D90115
:101DC0006D937C93E114F10471F0D7011396FC93A9
:101DD000EE93129776CF22968C0F9D1FF901918377
:101DE0008083F301EFCFF093D501E093D40169CF65
:101DF0004816590608F42C017D01D3019ACFCB0176
:101E00000E942F0D7C01009749F0AE01B8010E949D
:101E1000110FC8010E94CB0D870153CF10E000E0E5
:101E200050CFFB01DC0102C001900D9241505040A7
:101E3000D8F70895FB01DC0101900D920020E1F735
:061E40000895F894FFCFA5
:101E46000000D6018000000000008402A401D10138
:101E5600D1024202E00134020D0A006E616E006991
:081E66006E66006F7666000055
:00000001FF
